:100000000C9477120C949F120C949F120C949F12D4
:100010000C949F120C949F120C949F120C949F129C
:100020000C949F120C949F120C94311F0C94A31FDC
:100030000C949F120C949F120C949F120C949F127C
:100040000C949F120C949F120C949F120C949F126C
:100050000C949F120C949F120C949F120C94882560
:100060000C949F120C949F120C949F120C949F124C
:100070000C949F120C949F120C949F120C949F123C
:100080000C949F120C949F120C949F120C949F122C
:100090000C949F120C949F120C949F120C949F121C
:1000A0000C949F120C949F120C949F12101800F045
:1000B000F0F8F0F8F8FCF8FCFCFEFCFEFEFFFEFF9A
:1000C000FCFEFCFEF8FCF8FCF0F8F0F800F0006331
:1000D00063FF7FFFFFFF9FFFE7FFF9FFFFFFFFFFCA
:1000E000FFFFFFFFFFFFFFFF7FFF7FFF007F000E8F
:1000F0000C1E0C1F183F1A3F357F357F6BFF6BFFBF
:10010000357F357F1A3F183F0C1F0C1E000E00F084
:10011000F0F8F0F8F8FCF8FCFCFEFCFEFEFFFEFF39
:10012000FCFEFCFEF8FCF8FCF0F8F0F800F0007FB4
:100130007FFF7FFFFFFFFFFFFFFFFFFFFFFFFFFFCF
:10014000F9FFE7FF9FFFFFFF7FFF63FF0063000EE4
:100150000C1E0C1F183F1A3F357F357F6BFF6BFF5E
:10016000357F357F1A3F183F0C1F0C1E000E00F024
:10017000F0F8F0F8F8FCF8FCFCFEFCFEFEFFFEFFD9
:100180007CFE7CFE38FCB8FC10F8F0F800F0007F34
:100190007FFF7FFFF9FFE7FF9FFFFFFFFFFFF0FFFC
:1001A000F9FFF8FFFCFFFCFF7EFF63FF0063000E1A
:1001B0000C1E0C1F183F1A3F357F357F6BFF6BFFFE
:1001C000357F357F1A3F183F0C1F0C1E000E00F0C4
:1001D000F0F810F8B8FC38FC7CFE7CFEFEFFFEFF59
:1001E000FCFEFCFEF8FCF8FCF0F8F0F800F0006310
:1001F00063FF7EFFFCFFFCFFF8FFF9FFF0FFFFFF4E
:10020000FFFF9FFFE7FFF9FF7FFF7FFF007F000EEB
:100210000C1E0C1F183F1A3F357F357F6BFF6BFF9D
:10022000357F357F1A3F183F0C1F0C1E000E17102C
:10023000000000000000008080C0C0E0C0E0E0F0EE
:10024000E0F070F878FCB8FCBCFEDCFEEEFFECFEE3
:1002500074FE70FC78FCF0F8F0F8E0F000E000F8D4
:10026000F8FCFCFFFFFF1FFFEFFFF3FF3DFF1EFF4A
:100270000FFF07FF03FF03FF01FFFEFFFEFFFFFF6E
:10028000FFFFFFFF00FFFFFFFFFF00FF00E0E0F0C8
:10029000F0F8F0F878FC70FC74FEECFEEEFFDCFE8B
:1002A000BCFEB8FC78FC70F8E0F0E0F0C0E0C0E024
:1002B00080C0008000000000000000FFFFFFFFFF83
:1002C00000FFFFFFFFFFFFFFFEFFFEFF01FF03FF39
:1002D00003FF07FF0FFF1EFF3DFFF3FFEFFF1FFFB1
:1002E000FFFFFCFFF8FC00F80000000000000080A9
:1002F00080C0C0E0C0E0E0F0E0F070F878FCB8FC4E
:10030000BCFEDCFEEEFFECFE74FE70FC78FCF0F848
:10031000F0F8E0F000E000F8F8FCFCFFFFFF1FFF42
:10032000EFFFF3FF3DFF1E3F0F1F070F03070307FC
:1003300001FFFEFFFEFFFFFFFFFFFFFF00FFFFFFCC
:10034000FFFF00FF00E0E0F0F0F8F0F878FC70FC50
:1003500074FEECFEEEFFDCFEBCFEB8FC78FC70F830
:10036000E0F0E0F0C0E0C0E080C0008000000000ED
:10037000000000FFFFFFFFFF00FFFFFFFFFFFFFF89
:10038000FEFFFEFF01FF03070307070F0F1F1E3FBE
:100390003DFFF3FFEFFF1FFFFFFFFCFFF8FC00F83E
:1003A0000F2000FF00FF00FF00FF00FF00FFFFFF26
:1003B0008FFF4FFF1FFFFFFF00FFFFFFFFFF00FF4B
:1003C00000FF00FF00FF00FF00FF00FFFFFFFFFF37
:1003D000FFFFFFFFFFFF00FFFFFFFFFF00FF80FFAA
:1003E000C0FFC0FFE0FFE0FFF0FFF7FFEFFFEFFF10
:1003F0005FFF5FFF007F3F7F1F3F003F0F1F070F23
:10040000070F0307030701030103000100010000B8
:100410000000000000000000000000FFFFFFFFFFE1
:1004200000FFFFFF1FFF4FFF8FFFFFFF00FF00FFD9
:1004300000FF00FF00FF00FF00FFFFFFFFFF00FFC6
:10044000FFFFFFFFFFFFFFFFFFFF00FF00FF00FFB9
:1004500000FF00FF00FF003F1F3F3F7F007F5FFF67
:100460005FFFEFFFEFFFF7FFF0FFE0FFE0FFC0FFF0
:10047000C0FF80FF0000000000000000000000003E
:10048000000100010103010303070307070F070F22
:100490000F1F0000000000000000000000FFFFFF31
:1004A0008FFF4FFF1FFFFFFF00FFFFFFFFFF00FF5A
:1004B0000000000000000000000000FFFFFFFFFF41
:1004C000FFFFFFFFFFFF00FFFFFFFFFF00FF80C0F8
:1004D000C0E0C0E0E0F0E0F0F0FFF7FFEFFFEFFF7B
:1004E0005FFF5FFF007F3F7F1F3F003F0F1F070F32
:1004F000070F0307030701030103000100010000C8
:100500000000000000000000000000FFFFFFFFFFF0
:1005100000FFFFFF1FFF4FFF8FFFFFFF00FF0000E7
:10052000000000000000000000FFFFFFFFFF00FFD1
:10053000FFFFFFFFFFFFFFFFFFFF00FF00000000C6
:10054000000000000000003F1F3F3F7F007F5FFF73
:100550005FFFEFFFEFFFF7FFF0FFE0F0E0F0C0E03C
:10056000C0E080C0000000000000000000000000AB
:10057000000100010103010303070307070F070F31
:100580000F1F0820FDFFFCFFFEFF7CFF00FFFFFFA9
:10059000FFFF00FF03FF7BFF7CFFFEFF00FFFFFF6D
:1005A000FFFF00FF7FFF3EFFDEFFC0FF00FFFFFFFA
:1005B000FFFF00FF3EFF7FFF3FFF3F7F007F1F3FAA
:1005C0001F3F001F00FFFFFFFFFF00FF7DFFFEFF3B
:1005D000FCFFFDFF00FFFFFFFFFF00FFFEFF7CFFB2
:1005E0007BFF03FF00FFFFFFFFFF00FFC0FFDEFFF9
:1005F0003EFF7FFF001F1F3F1F3F003FBFFF3FFF2A
:100600007FFF3EFF00FFFFFFFFFFFFFF00FFFFFF39
:10061000FFFF00FF00FFFFFFFFFFFFFF00FFFFFFE7
:10062000FFFF00FF00FFFFFFFFFFFFFF00FFFFFFD7
:10063000FFFF00FF0007070F070F0F1F003F1F3FBF
:100640001F3F001F00FFFFFFFFFF00FFFFFFFFFF37
:10065000FFFF00FF00FFFFFFFFFF00FFFFFFFFFFA7
:10066000FFFF00FF00FFFFFFFFFF00FFFFFFFFFF97
:10067000FFFF00FF001F1F3F1F3F003F0F1F070F1F
:10068000070F00070A208080000050500000A8A833
:100690000000000000AA00000055AAAA000055555D
:1006A0000000AAAA0000000000AA00200055AAAA83
:1006B000000055550000AAAA0000000000AA000092
:1006C00000550A0A000005050000020200000000B3
:1006D000000A000000050055000000AA000000000C
:1006E000A8A800005050000080800055002000AAFB
:1006F00000000000AAAA000055550000AAAA005553
:10070000000000AA00000000AAAA00005555000041
:10071000AAAA00050000000A000000000202000072
:10072000050500000A0A00000040000000A00000CB
:100730000000000000000000000000000055000064
:1007400000AA0000000000000000002000000000DF
:100750000055000000AA000000000000000000009A
:100760000000000000050000000200000000000082
:100770000000000000000000000000000000000079
:10078000000000A800000040000000000020000061
:1007900000000000000000AA00000055000000005A
:1007A0000000000000000000000000AA000000554A
:1007B0000000000000000000000000000000000237
:1007C000000000050000101800F0F0F8F0F8F8FC48
:1007D000F8FCFCFEFCFEFEFFFEFFFCFEFCFEF8FC4F
:1007E00080F800800000000000FFFFFFFFFF7FFF98
:1007F000BFFF3FFFFFFFFFFFFFFFFFFFFFFFFFFF09
:10080000FFFFFFFFFCFF00FC000F0F1F0F1F1C3F2F
:100810001D3F3E7F3F7F7FFF7FFF3F7F3F7F1F3F2B
:100820001F3F0F1F0F1F000F00000000008080F807
:10083000F8FCFCFEFCFEFEFFFEFFFCFEFCFEF8FCEE
:10084000F8FCF0F8F0F800F000FCFCFFFFFFFFFF01
:10085000FFFFFFFFFFFFFFFFFFFFFFFF3FFFBFFFA8
:100860007FFFFFFFFFFF00FF000F0F1F0F1F1F3F46
:100870001F3F3F7F3F7F7FFF7FFF3F7F3E7F1D3FCB
:100880001C3F0F1F0F1F000F000000000000008022
:1008900080C0C0E0C0E0E0F0E0F0F0F8F0F8F8FC74
:1008A00078FC70F8F0F800F000E0E0F8F8FCFCFFED
:1008B0007FFF7FFFFFFFFFFFFFFF41FF6CFF20FF78
:1008C00036FF10FFFFFF00FF000F0F1F0F1F1F3F1E
:1008D0001C3F3B7F387F7FFF7FFF207F377F163FA6
:1008E0001A3F081F0F1F000F00F0F0F870F878FC97
:1008F000F8FCF0F8F0F8E0F0E0F0C0E0C0E080C014
:10090000008000000000000000FFFFFF10FF36FF26
:1009100020FF6CFF41FFFFFFFFFFFFFF7FFF7FFF17
:10092000FCFFF8FCE0F800E0000F0F1F081F1A3F63
:10093000163F377F207F7FFF7FFF387F3B7F1C3F45
:100940001F3F0F1F0F1F000F0000000000000000DE
:100950000000000000000000000000000000000097
:10096000000000000000000000E0E0F0F0F8F8FCFB
:10097000F8FCFCFEFCFEFCFEECFEECFEECFED8FC03
:10098000F8FCF0F8E0F000E0001101130337073F36
:10099000077F0F7F0F7F0F7F0F7F0F7F0F7F077FF7
:1009A000073F033701130011000000000000008022
:1009B00080C0C0E0C0E0C0E0C0E0C0E0C0E080C0F7
:1009C00000800000000000000000007E7EFFFFFFAE
:1009D000FFFFFFFFFFFFFFFFFEFFFEFFFDFFFBFF2F
:1009E000FFFF7EFF007E0000000000080008001DE1
:1009F000011F033F033F033F033F033F033F011F2B
:100A0000001D00080008000000000000008080E0D9
:100A1000E0F0F0F8F8FCF8FCE8FCD8FC30F8E0F086
:100A200080E000800000000000000000001F1F7F29
:100A30007FFFFFFFFFFFFFFFFFFFFFFFFFFF7FFFC6
:100A40001F7F001F000000000000000000080008D9
:100A5000001C001D013F013F013F013F001D001C24
:100A60000008000800000000000000000000000076
:100A7000008080C080C080C080C080C080C00080F6
:100A80000000000000000000000000FCFCFEFEFF73
:100A9000FFFFFFFFFFFFFFFFFDFFFDFFFBFFF7FF76
:100AA000FEFFFCFE00FC0000000000080009011F22
:100AB000031F073F073F073F073F073F073F031F4E
:100AC000011F000900080000081000F000F0C0F04D
:100AD000C0F0C0F000F000F00000003F003F113F08
:100AE000013F113F003F003F0000000000F8E0F828
:100AF000C0F080F000E0000000000000001F083F90
:100B0000013F137F007F000000000000000000E0B4
:100B1000C0F800F800000000000000000000007FA6
:100B2000137F001F00000000000000000000000014
:100B300000F80000000000000000000000000000BD
:100B4000007F00000000000000000000000000F82E
:100B5000C0F800E000000000000000000000001FDE
:100B60000B7F007F000000000000000000E080F02C
:100B7000C0F0E0F800F8000000000000007F137FE4
:100B8000013F083F001F0000000000F0E0F0E0F02F
:100B9000E0F0E0F0E0F000F00000003F1F3F113F08
:100BA000113F113F1F3F003F0000000000F8F0F828
:100BB000E0F0E0F0C0E000E000000000001F0F3FA8
:100BC000113F113F3F7F007F00000000000000F850
:100BD000F0F8C0F000E00000000000000000001F7E
:100BE0000F3F3F7F007F000000000000000000007A
:100BF00000F80000000000000000000000000000FD
:100C0000007F00000000000000000000000000E085
:100C1000C0F0F0F800F80000000000000000007FC5
:100C20003F7F0F3F001F00000000000000E0C0E019
:100C3000E0F0E0F0F0F800F800000000007F3F7FF7
:100C4000113F113F0F3F001F000000E040E040F067
:100C500000F000F000E000E00000003F153F153F0D
:100C6000153F143F103F003F0000000000F0A0F0CF
:100C700000F000F000C0000000000000001F0A3F6C
:100C8000153F207F007F000000000000000000F002
:100C900000F000C000000000000000000000001F85
:100CA000007F007F00000000000000000000000046
:100CB00000F0000000000000000000000000000044
:100CC000007F00000000000000000000000000C0E5
:100CD00000F000F000000000000000000000007FB5
:100CE000007F001F000000000000000000C000F0B6
:100CF00000F0A0F000F0000000000000007F207F66
:100D0000153F0A3F001F0000000000C000E000F097
:100D100040F040F080E000C0000000010003000748
:100D200000070007000300010000000000E000F0E1
:100D300040F000F00080000000000000000000070C
:100D4000000701070003000000000000000000E0B1
:100D500000F0008000000000000000000000000023
:100D60000007000300000000000000000000000079
:100D700000F0000000000000000000000000000083
:100D800000070000000000000000000000000080DC
:100D900000F000E000000000000000000000000380
:100DA000000700000000000000000000008000F0CC
:100DB00040F040F000E000000000000000030007E9
:100DC0000007000700000000000000E0C0E000E0B5
:100DD00040E040E0C0E000E00000003F1F3F003F77
:100DE000153F153F1F3F003F0000000000F0E0F0FE
:100DF00040E080E000C0000000000000001F0F3F46
:100E0000153F3F7F007F000000000000000000F061
:100E100080F000C000000000000000000000001F83
:100E20001F7F007F000000000000000000000000A5
:100E300000F00000000000000000000000000000C2
:100E4000007F00000000000000000000000000C063
:100E500080F000F000000000000000000000007FB3
:100E60001F7F001F000000000000000000C080E0A5
:100E700040E0E0F000F0000000000000007F3F7F55
:100E8000153F0F3F001F0000000000F848FC48FC21
:100E90009CFE9CFE48FC48FC00F8003F017F017F5F
:100EA00002FF02FF017F017F003F00F888FC88FC01
:100EB0001CFE1CFE88FC88FC00F8003F027F027FBD
:100EC00005FF05FF027F027F003F00F808FC08FCD9
:100ED0001CFE1CFE08FC08FC00F8003F057F057F97
:100EE0000AFF0AFF057F057F003F00F808FC08FCA9
:100EF0001CFE1CFE08FC08FC00F8003F0A7F0A7F6D
:100F000014FF14FF0A7F0A7F003F00F808FC08FC6A
:100F10001CFE1CFE08FC08FC00F8003F147F147F38
:100F200028FF28FF147F147F003F00F808FC08FC0E
:100F30001CFE1CFE08FC08FC00F8003F287F287FF0
:100F400050FF50FF287F287F003F0A282040402084
:100F500090CCE2FAF9FD9FEFE0F0E7E70F07F7F931
:100F60003F1FDFE7F3FDFCFE7CBCF0F8F3F3070363
:100F70007B7CFE7F0F030106020300000000FDF9E9
:100F8000FAE2CC9020404020F9F7070FE7E7F0E0C5
:100F9000EF9FBC7CFEFCFDF3E7DF1F3F7FFE7C7B09
:100FA0000307F3F3F8F00000000003020601030F4B
:100FB000161000000000000000000000000080800B
:100FC0008080C0C0C0C0E0E0E0E0C0C0C0C08080A1
:100FD0008080000000000000000000000000040409
:100FE00004040E0E0E0E1F1F1F1F3F3F3F3F7F7F4B
:100FF0007F7FFFFFFFFF7F7F7F7F3F3F3F3F1F1FC1
:101000001F1F0E0E0E0E040404040000000000F06A
:10101000E0F010F8D0F838FCB8FC7CFE7CFEFEFF57
:10102000FEFF7CFE7CFEB8FCB8FC50F850F8A0F047
:1010300000F0000000000000000000070307000FA0
:10104000070F001F0F1F003F1F3F007F2A7F153F24
:10105000153F0A1F0A1F050F050F020700070000B2
:101060000000F0F008F8D0F0A0E040C0FEFE01FF64
:10107000C6FE38F806FEF9FFC6FE38F870F08CFCA4
:1010800002FEFCFCC0C030F0CCFC02FEFCFC040400
:101090000707080F0F0F1E1F1D1F203F3F3F7C7FBC
:1010A000437FFFFF8FFF717F7E7F3F3F203F1B1FEE
:1010B0001C1F0F0F080F07070404000000000000AA
:1010C000808040C020E010F008F804FC02FEABFF76
:1010D00055FF02FE04FC08F810F020E040C08080BC
:1010E00000000000000004040606090F080F101F8E
:1010F000101F203F203F407F407FAAFFD5FF407F49
:10110000407F203F203F101F101F080F090F0606C9
:10111000040400000000000000000080008000C007
:1011200080C000E0C0E000E0E0E000E0C0E000C01F
:1011300080C0008000800000000000000000000E61
:10114000040E001F0E1F003F1F3F207F2F7F70FFE8
:1011500077FFF8FFFBFF70FF77FF207F2F7F003FB7
:101160001F3F001F0E1F000E040E0117FE169216E1
:101170007D16681653163E1629162616D4172716FE
:10118000C717BA17AD17A0179317861779176C17DB
:101190005F175217451738172B171E17111704170B
:1011A000281603081F111F121F101D151711151FD8
:1011B00007041F17151D1F151D01011F1F151F17E0
:1011C000151F03087F417F427F4079494F41497F86
:1011D0000F087F4F49797F497901017F7F497F4F10
:1011E000497F050800007E00007D7D00007F060627
:1011F0007670707676760000F0F0F700007070760A
:1012000006060000760606FEFEFE000000007600E0
:101210000070707600000508FEBFBFBFFEFEAFAFD6
:10122000AFFEFEABABABFE07081F11151511111F6A
:1012300007081F19191F1F1F1F05080E1F1D190E54
:10124000020800FFFFFF5D0880BE8888BE80BEAA3E
:10125000AAA280BEA0AFAF80BE8AEAEEE0FFFFFF89
:1012600080BE8AEAEE80BEA0AFAF80BE9292BE8002
:10127000EE88B88EE0FFFFFF88A2BEA280BE84C9C0
:1012800090BE80BE8AEAE280BEA2A2BE80FFFFFFBF
:1012900080BEA2A280BEA2A2BE80BE84C990BE8033
:1012A000BE8AEAE2F8FFFFFFFFFFFFFFFFFFFFFF3D
:1012B000FFFFFF80AEAAAABA80BEA2A2BE80BEA0D7
:1012C000A0BE80BE84C990BE80BEA2A29CC1FFFF0A
:1012D000FFFFFF80BEA2A2BE80BE8AEAE280BE8A75
:1012E000EAE2F8FFFFFFFFFF80BEA2A2BE80BE843D
:1012F0008890BE80FFFFFFFFFFFFFFFFFFFFFFFFA4
:10130000FFFF80400000000000000000000000001F
:10131000000000000000000000000000C060305825
:10132000CC647266ECD8B060C0E038C8EC747474F9
:1013300074747474747474E4ECECE8E8D8D090B00D
:10134000206040C0808000000080202020202020DD
:1013500020202020202020202020208000000000AD
:10136000000000000000000000000000000000007D
:10137000000000000000000000000000000000006D
:10138000000000000000000000000000000000005D
:101390000000000000000080C0406020A0B19B9EC3
:1013A0008C2E73F87F3F9FDE04F00EE3FC3E1F0F90
:1013B0002F2F2F5F3FFFFEFEFE7E7C3DBDB97BFBE6
:1013C000F7F7E6EE0CFD3B82F6ECE8DAB262CA8291
:1013D000028282828282AA82AA00002A8000000001
:1013E0000000000000000000A008088888888888A5
:1013F000888888888888888888080808A00000006D
:1014000000000000000080E030C8ECE4F4F67676DE
:1014100076746448D8D8ECE7F0FA7B3B93C79FBF5B
:101420003F4FE03E03017C83387F70E7EFEFEFCF63
:10143000DEDEDEDEDE9FBFBFBCBC7C7C78787370F6
:10144000FF7F1FC3388FE0FFFFFFFFFFFFFF7C819F
:10145000FE38000000000000802008A8AA282828E4
:1014600028A828282828A8088A280A08A08A80806E
:10147000808080808080AA8080AA0000AA0000006E
:101480000000000080807FC01E7FFFFFE1CC9EB384
:10149000A1A1B192DCC1FFFF83FCB8E79F7FFFFFF2
:1014A000FFFEFDFAFA3A89E5E6E8CEDEDEDEDDBDD6
:1014B000BDBD797B7BFBF3F77767EFEFEFCF5F5E27
:1014C0005E5E4F617C7F477379FDFDFDFD7D787B1E
:1014D0007A7A7A7274E4C890B2C0888A2020202078
:1014E000222220202802A028020000000228A0803A
:1014F000000000000000000000000000AA00808042
:10150000808080808080808103F2FE05F5F7FBFB00
:10151000FBFBFDFDFDCDCEE666666666680FECF56D
:10152000FBFBFDFDFDEDCDCD8D8B37C7FBFDFDFE3E
:10153000FEFEFF03E7E6CE9E9DC23EDAE5F6F7F734
:10154000F3F37373FFFFFFFFFFFEFEF900FFFFFFE2
:10155000FFFFFFFF0FE626C6FEFEFEFEFDFAF408C3
:10156000D0E8F4FAFAFAFAFA1AFAFAF4E89070887B
:10157000F6F4F4E8E8E8E8D0A0A0A0A0AAA0408093
:10158000008080802020202020231FFEE11FFFFFFD
:10159000FFFFFFFFFFFFE01C6642424242A7AC3B59
:1015A000D3C7CFCFDFFFFFFF7F7FFE19171F1FDFDE
:1015B000DFBF3FF0B7FB1D1E1E11D05FDFBF7FFFF7
:1015C000BFFF3C3C1FDFDFBF3FFFBFFD101F1F1FE2
:1015D000FFFF1F1F1C1BD8DFBF3FFF9FCFCF63F054
:1015E000CF3F7FFFFFFFFFC7C6C7E7777703F0FF57
:1015F000FFFFFFFFFFFF07F3190919131313180F5C
:1016000020202020A2A2A2A2A2A2A2A18F3EF1CFBE
:10161000CFCFCF4FC7A7A7A6A7B3B3B3B3B3B9A9CB
:10162000ACA4A4A4A4A4A4A4A6A2FF80808080BF8C
:10163000B2DBCFF0BFFF80808080F7CE8CB7F8AFF1
:10164000BFF0C0C080BFB2DBCFF0AFFF8080808032
:10165000FFFF80808080BFB4DBCFF0BFA2A2A2A238
:10166000A3A3A2A4A4A4A4A4A4A4A4A2AEB0B3B30C
:10167000A7A7A7A727B89FA7A0A2A2A2A2A2A2A29B
:10168000A2A2A2A2AAAAAAAAAAAAAAAAAAAAAAAADA
:10169000AAA8873CFF000000000000000000000036
:1016A000000000000000000000000000000000003A
:1016B000000000000000000000000000000000002A
:1016C000000000000000000000000000000000001A
:1016D000000000000000000000000000000000000A
:1016E00000000000000000000000000000000000FA
:1016F00000000FA0AAAAAAAAAAAAAAAAAAAAAAAA43
:10170000AAAAAAAA3C38000000000080F8FE0FE355
:10171000FB1B0B0B8BFBF3F7F6F6F60606ECECEC7B
:10172000ECECECECECECECECECECECEEE6F6F6F6DF
:10173000F7F3FBFBCBCBFBE30FFEF8801E3321213D
:10174000339E00000080F8FF0FE0F8F9F9F9F9F98D
:10175000F9F9F1F3F3F3F3F0F0FFFFFFFFFFFFFF01
:10176000FFFFFFFFFFFFFFFFFFFFFFFFFFFFFFFF89
:10177000FFFF7F7FFEE00FFFF880060600000000FD
:10178000000F3FF0C607040407070707070707070E
:1017900007070707FFFFFFFFFFFFFFFFFFFFFFFF39
:1017A000FFFFFFFF0707070707078787070726864B
:1017B0000707C6F03F1F0080800000000000000007
:1017C000030784C4E4E4E4E4E4E4E4E4C49C000F38
:1017D000E7E7E7E7E7E7E7E7E7E7C7870F1F0FC7B1
:1017E000E7E0ECE4E4E4E5E5E4C404040407030012
:1017F000C040C30311000000000000000000FFFF14
:10180000FFFFFF393939FFFFFF0FE0E0EFEF0FFF78
:10181000FF183879FFFFF703E0E0EFEF0FFFF9F073
:10182000F0FCFDFDFD0DECE0E0E000000121010019
:101830000000000080C0602060C080000000000C3C
:101840000C007EFE803C3E1C1C1C1C1C0C0C0E0C58
:101850000C0C0C0E1E1C1C1C1C3C3E80FE7E000052
:101860000000C0E0E0C000000000030300000E1B09
:101870003166C680D060311B0E0000382838000168
:10188000471E3820202020301010D0D0101090108B
:101890003020202020381E0701000006060000012D
:1018A000010000000000000000004040FFFFFF07B3
:1018B00007E7E7676767676767E7E70707FFFF9F70
:1018C0009FFFFF8787FFFF6767E7E7FFFF9F9F6730
:1018D000679F9FE7E76767E7E7FFFF0707E7E767B8
:1018E0006767676767E7E70707FFFFFFFFFFFF001F
:1018F000007F7F6060606060607F7F0000FFFF1995
:1019000019818179799F9F1818F9F901019F9F7EAC
:101910007E81816161E6E60101FFFF00007F7F605B
:1019200060606060607F7F0000FFFFFFFFFFFF6679
:101930006666668686868686861E1E6666070766D5
:1019400066E1E11818E1E19E9E878766667979185D
:1019500018E7E79E9E8181989887879E9E86861EBF
:101960001EE6E6FEFEE6E69E9EFFFFFFFFFFFF98F7
:1019700098868661618181FFFFE0E06666E6E6E0C9
:10198000E08787E6E67F7F61618787606060601E31
:101990001E67677F7F818179791F1F9F9F81819853
:1019A00098E7E70707F9F99F9FFFFFFFFFFFFF0792
:1019B00007E7E7606019196767676766666161E74F
:1019C000E799990707E0E09E9E1F1F7E7E6060807A
:1019D0008066661E1E999998989E9E1F1F79799F12
:1019E0009F1F1F0606F9F99F9FFFFFFFFFFFFF6084
:1019F000607F7F7E7E6060787878786666FEFE1F06
:101A00001F999980807F7F6161F8F8E6E67E7E19F4
:101A100019E6E69E9E19190707E7E76666E0E0010A
:101A2000011E1E060681818787FFFFFFFFFFFF0063
:101A300000FEFE060606060606FEFE0000FFFF0686
:101A40000687876161E0E09E9E1F1F191960601E76
:101A50001E878781819898E0E00707666607076020
:101A6000600000666601018787FFFFFFFFFFFFE060
:101A7000E0E7E7E6E6E6E6E6E6E7E7E0E0FFFFE0E8
:101A8000E0F9F9E6E6FFFFE1E1F8F8E6E6F8F8F854
:101A9000F8E7E7FFFFE7E7F9F9FEFEF8F8E0E0E630
:101AA000E6E0E0E6E6F8F8FFFFFFFFFF6018000061
:101AB0000000000000000000000000000000000026
:101AC0000000000000007F415D55577F416D6D5162
:101AD0007F4155555D7F416D6D417F057D417D05A0
:101AE0007F4155555D7F415D5D633E007F415D55A2
:101AF000497F117747711F000000000000000000BF
:101B000000000000000000000000000000000000D5
:101B1000000000007F416D6D417F007F4175151D04
:101B20007F417F515555457F417777417F007F4108
:101B30005D55577F416D6D417F415F50507F415FE3
:101B400050507F4155555D7F415D5D633E007F4153
:101B50005F685F417F416D6D417F417B77417F4190
:101B60005D5D637F416D6D417F0000000000007F7F
:101B7000416D6D417F417B77417F415D5D633E00FB
:101B80007F417D137D417F416D6D417F417B774179
:101B90007F117747711F007F417D137D417F416D2C
:101BA0006D417F417B77417F117747711F007F41F6
:101BB0005D5D417F057D417D057F417777417F41B7
:101BC00055555D7F416D6D517F515555457F0308DA
:101BD000007F3E7F007F080B000202020100090423
:101BE000000001020200000524001001052401018B
:101BF00001042402060524060001070581031000E4
:101C00004009040100020A0000000705020240002A
:101C100000070583024000000403090412010002CA
:101C2000EF020140412336800001010203014172AD
:101C30006475696E6F204C4C430041726475626F2D
:101C40007900D5F08D14A1C881CFD9F1AF20000A59
:101C500018A118F8170516E6173318A1122B27A894
:101C600026872666260401038F80C00040000000FE
:101C70000000000000FF40404040404040404040E5
:101C80004040FF404040404040404040404040FFD6
:101C9000404040404040404040404040010103033C
:101CA00001010303041F040203F9000F04000000F4
:101CB00000020A121A22C0020B000020C16309317F
:101CC000000000900E0000050000A17B83AB000027
:101CD0003000000801000065000000000001010361
:101CE0000301010303041F80400000000000000006
:101CF00000000000000000000000000000000000E4
:101D000000008080C0C040606020B0B0D0D8D8D87B
:101D1000D8D8581898D8D8D8D8D8B0B0B070606093
:101D2000C0C0808000000000000000000000000033
:101D30000000000000000040404040401010101023
:101D40001050501010101010500000000000000043
:101D50000000000000000000000000000000000083
:101D60000000000000000000000000000000000073
:101D7000000000000000000000000000000080F0F3
:101D80003C87F3FDFCFEFEFFFFFFFFFFFFFF7F8FA1
:101D9000E3790EE3FDFEDE5D5D1B9BFBFBF7F7E6E3
:101DA000EEECCDDDD99B3BFAE60CF8E000540404E0
:101DB000441411111111110404444444410105500B
:101DC00040000114400000000001050410404000E4
:101DD0000000000000000000000000000000000003
:101DE00000000000000000000000000000000000F3
:101DF0000000000000000000000000C0F83EC3FC2E
:101E0000FEFFFFFF1FDFDFDFDF9F3FFFFF1FC0FF82
:101E1000C3D8DF9FBDB93A7A7B7BFFFFCFCEC6D652
:101E2000DABCFCFF1FC1FC0FE17C0701000114407C
:101E30000154400111151110404044454444101014
:101E40001114000001144000000000000000000117
:101E500001040400101010004040000000000000C9
:101E600000000000000000000080808080808080F2
:101E7000808080808080800080F07F8FF1FCFFFF79
:101E8000FFFFFFF0877FFFFFFFFFFEC11CBEBEBC50
:101E9000BD7D797B7BF3F7F7E7EFEECEDEDDDDDDB1
:101EA000D99BBB39BC9FC07F078080808080801514
:101EB0004000014141414141101010101010040434
:101EC0000404144000000550000000000000000061
:101ED00000000000000000000005504000808080ED
:101EE00080808080808080808080808080808080F2
:101EF00080800000008080F89FC1FCFF7F7F7F7F93
:101F00007F7F7F7FFFF8E31FFFFFFFFFF08FFFFF63
:101F1000FF7F7F7F7F7E7EFEFEFDFD7D7D7B7BBB29
:101F2000BBA7B07EF147BCA0A0A0A0A0A0A060E08D
:101F3000D5404041544040404040C0C080808080F7
:101F40008080808194808085540000000000000023
:101F500000000000008080808080808184904000AC
:101F60000080808080808080802020202020202091
:101F700020007EFFC33DFDFEFEFEFEFEFFFFE313DD
:101F8000F3F313E7E64EBDFB047FA7DBDDFEEEE6D1
:101F9000E6E7E7FFFFFFFFFEFEFDF201FFFFFFFFA9
:101FA000FFFFFF00FF00FFFFFFFFFFFFFFFF009DA0
:101FB0007EFFFFFFFFFFFBFBF3E7C609F7FBFDFE1C
:101FC000FEFEFE8EE6FEFDFDF30F1EECF6F6FAFABF
:101FD000FAFA3A9A3BF3FDFEFEFEFEFEFD7D83FF1C
:101FE000FE0020202020202020A2A2A2A2A2A2A2A5
:101FF000A2A2A007FFFC837FFFFFFFFFFFFFFFF808
:1020000037373B9B9D4E4F333C70CF9F3F7F7F7F49
:102010003FDCE8ED2F2F2F2F2FEF2F20272F2FEF33
:102020002F2F2F2C2BE82F2F2F2F2FEF2F2F202D5F
:102030002CE8292B2F2F2FEF2F2F2F2027EFEFDF2B
:102040003F7F7F713131399DCDF0C73F7FFFFFFF6B
:10205000FFCFD0DFE0FFFFFFFFFFFFFF07F8FF0F1D
:10206000A0A2A2A2A2A2A2A2A2AAAAAAAAAAAAAA1A
:10207000AAAAAAAAA08F9FB8A7A7B393939389A946
:10208000A6A7A3A8AAAAAAAAAAAAA8A9A9AAAAAAC4
:1020900080BF7F7F40404040407F40404040407F85
:1020A00040404040407F40404040407F40404040B2
:1020B000407F40404040407F40404040407F7FBFA5
:1020C00080AAAAAAA9A9A9A8AAA8A9ABA2A4A4A4BB
:1020D000A9A9A9AC89939393939397989F8FA1A84B
:1020E000AAAAAAAAAAAAAAAAAA8040000000000036
:1020F0000000000000000000000000005004040484
:1021000004444444444444444444444444444444CF
:10211000444444040404946010C8E8E4F4F4F4F47F
:10212000F6F2FAFAFAFAFAFAFAFAFAFAFAFAFAFA1B
:10213000FAFAFAFAFAFAFAFAFAFAFAFAF2F6F4C843
:1021400010E00010101010101010101010101010CF
:1021500010101010101010400000000000000000CF
:10216000000000000000000000000000000000006F
:102170005004044444444444444404500500005082
:1021800005000054000000000000000000000000F6
:102190005400001500FF01E6F30B050505258585B4
:1021A000050506060E8E8E2E0E0E0E060606060679
:1021B000060626868606060606A62606060EFCFDEA
:1021C000FB00FF00015101010101010101010101B9
:1021D00051010154400000550044444444444444E7
:1021E0004444440404045000000000000000005473
:1021F000010055404440404040400055000000056B
:10220000040404040404040404040404040404048E
:102210000404040400FF00FFFFE000000000202091
:10222000000A0A0A2220000000000000000000004E
:1022300000002008080202020808200000FEFFFF3C
:102240001FC0FF00101110101010101010101010EF
:10225000111010101500000055004440404040404F
:1022600040444055000055000000008080000055AB
:102270000000500404040404040450050000540148
:10228000010181C161B1B1D9D9E96969696969E9B6
:10229000D9D9B171E0CFFC8177B7B7D7D6D6D6D62A
:1022A000D6D6D6D6D6B67A1AEAEAEAEAEAEAEAEA66
:1022B000DADAD6D6D6D6D6D6D6D6B7B7B7B3DBDB2C
:1022C000D0BFA1A464C4C4848484848484848484AA
:1022D000848404040450000055000404040404042D
:1022E00004040404500001540080808080809580A4
:1022F000808095808080808080005500000055009F
:10230000F89E63FCFFFFFFFFFFFFFC820E6E6E7402
:1023100034B1B1B4B78F8FB47B7BFDFDFCFC1C39AD
:10232000FFFFFF7F7FFFFF00FFFFFFFFFFFF7FFF3C
:1023300000FC00FFFFFFFFFFFFFF7F81F900FFFFB1
:10234000FFFFFFFFFF3E01FBFDFDFEFEFEFE9EE6E2
:10235000FEFEFDF30EF800000055008080808080B6
:102360008080808095808095808080202020202023
:102370002020202020202020202025202020202058
:10238000212F1C3367CF9F9F3F3F1FE7F8FCFEFFC5
:10239000FFFFFFE119F9B97363C7CE1CFAE60E3EE1
:1023A0007EFEFEFFFFFEFDF8E3C7E7F33D9EE7027A
:1023B000F0FBFCFEFEFEFE8EE6FEFCFDF9C007FB18
:1023C000FDFDFDFDFDFCF877373737777773013179
:1023D00039399BC37C0F202020252020202020205D
:1023E0002020202020202020202020A2A2A2A2A263
:1023F000A2A2A2A2A2A2A2A2A2A2A2A2A2A2A2A2BD
:10240000A2A2A2A2A2A2A2A1A19F78E79F3F3F7F82
:102410007FFF3FDFE8E72F2C2E2729EE2F232C2FDD
:1024200026EC2923272F2FEF2F27292C27E32F28CE
:10243000272F2FEF2F2F2F2121E1292D2D2128EFBD
:10244000EFDF3FFFFF7F81FE07A3A3A2A2A2A3A10C
:10245000A1A1A1A2A2A2A2A2A2A2A2A2A2A2A2A25F
:10246000A2A2A2A2A2A2A2A2A2A2A2AAAAAAAAAA24
:10247000AAAAAAAAAAAAAAAAAAAAAAAAAAAAAAAABC
:10248000AAAAAAAAAAAAAAAAAAAAAAAAA9A9ABAAAD
:10249000A6A480BF7F7F40404040407F40404040F6
:1024A000407F40404040407F40404040407F40406F
:1024B0004040407F40404040407F40404040407F5F
:1024C0007F3F80A9A9AEA7A9AAAAAAAAAAAAAAAA2E
:1024D000AAAAAAAAAAAAAAAAAAAAAAAAAAAAAAAA5C
:1024E000AAAAAAAAAAAAAAAAAAAAAA0087271124BB
:1024F0001FBECFEFDAE0DEBFCDBF11E0A0E0B1E05C
:10250000E8E5F3E502C005900D92AC35B107D9F7C7
:1025100026E0ACE5B1E001C01D92AB38B207E1F7AF
:1025200012E1C7E7D2E104C02197FE010E94982979
:10253000C637D107C9F70E94CC270C94AA290C945E
:1025400000002F923F925F926F927F928F929F92A4
:10255000AF92BF92CF92DF92EF92FF920F931F93B1
:10256000CF93DF931F92CDB7DEB76091860680913F
:1025700085060E94241D0E94B51BE0917E06E5FDA4
:102580001FC180915D0680FD11C10E94532687FF07
:1025900043C010917E061C7F10937E06A0907B06A0
:1025A000B0907C06D0907906C0907A0621E040E099
:1025B00050E0B5018D2D9C2D0E94031AE0908206FB
:1025C000F09083068823A9F06A2D6E198D2D0E9444
:1025D000BC1C823009F0EAC0E0918506F0E0EE0F05
:1025E000FF1FE651FA4F808187FFE0C083FFCEC016
:1025F000DDC0B5016E197F0900E021E040E050E048
:102600008D2D9C2D0E94DE1C882319F00E947519C7
:10261000CDC00E94F31DCAC00E94532686FF3AC057
:1026200010917E061D7F812F816080937E06A09091
:102630007B06B0907C06D0907906C0907A0621E0A7
:1026400041E050E0B5018D2D9C2D0E94031AE090D1
:102650008206F09083068823A9F06A2D6E198D2DCD
:102660000E94BC1C8A3009F0A1C0E0918506F0E010
:10267000EE0FFF1FE651FA4F808186FF97C082FF61
:1026800046C294C0B5016E197F0900E021E041E027
:1026900050E0B6CF0E94532684FF3AC010917E06C8
:1026A0001E7F812F826080937E06A0907B06B09073
:1026B0007C06D0907906C0907A0621E042E050E096
:1026C000B5018D2D9C2D0E94031AE0908206F0909A
:1026D00083068823A9F06A2D6E198D2D0E94BC1CDB
:1026E000863109F063C0E0918506F0E0EE0FFF1F30
:1026F000E651FA4F808185FF59C081FF15C256C04F
:10270000B5016E197F0900E021E042E050E078CF8A
:102710000E94532685FF4AC0F0907E068F2D83606D
:1027200080937E06A0907B06B0907C06E0907906B0
:10273000D0907A0621E043E050E0B5018E2D9D2D2A
:102740000E94031A00918206109183068823A1F04B
:102750006A2D601B8E2D0E94BC1C8E3039F5E091D5
:102760008506F0E0EE0FFF1FE651FA4F808184FFEF
:102770001DC080FFE6C11AC0B501601B710B00E0EF
:1027800021E043E050E08E2D9D2D3CCF1062109350
:102790007E068BE190E090937A06809379066EE155
:1027A000E60EF11CF0927C06E0927B0688E00E9427
:1027B000DD1E882309F4CBC089E080939705C7C04C
:1027C00080918006853038F480915D0680FDBFC021
:1027D0000E94F31DBCC03091860680918506A32F10
:1027E000B0E0AA0FBB1FA45DBE4FE370F0E03496CB
:1027F0002DE0829FE00DF11D11248D919C91E80F39
:10280000F91F84918370823031F0833031F0813050
:1028100031F022E005C026E103C02EE001C02AE02D
:10282000209384062A3069F018F4223051F00DC04C
:102830002E3011F0263149F4ADEDCA2EDD24DA94A4
:1028400004C077EFC72EDD24DA94D0928306C092BD
:102850008206E491F0E0F595E795F595E795E0932C
:102860008506822F65E00E947829A82EB12C46E0CB
:10287000849FC00111240496821B9109ACE0A89F9B
:10288000B001A99F700D1124CB0103962A3041F0AD
:1028900018F4223049F00CC02E3031F0263141F4CA
:1028A0005AE0E52EF12C04C046EFE42EFF24FA9402
:1028B000E80EF91EF0927A06E092790656E0259F1E
:1028C000C00111244296A8EE6A2FA501640370018D
:1028D000659FF00C11248E0D9F1D2A3049F018F4CD
:1028E000223031F00AC02E3031F0263121F005C0FF
:1028F0000BEF1FEF02C005E010E0080F191F0C0DD1
:102900001D1D10937C0600937B0610928006632F9A
:102910008E2F0E94231C80917E068F7D8064809381
:102920007E0687E0809397050F90DF91CF911F91EE
:102930000F91FF90EF90DF90CF90BF90AF909F905E
:102940008F907F906F905F903F902F900895A09010
:102950005D06B0905E0683E0A822BB24A114B104FA
:10296000A1F00F90DF91CF911F910F91FF90EF9009
:10297000DF90CF90BF90AF909F908F907F906F909F
:102980005F903F902F900C94271B8EE2C82E86E01C
:10299000D82E9AE2E92E96E0F92E512C80918506E8
:1029A000A0918606B0E0AA0FBB1FA45DBE4FF50143
:1029B00038969DE0899FE00DF11D11248D919C9129
:1029C000E80FF91FE491EE2309F48FC0F60190811E
:1029D000892F877019F08130B9F187C09871292E3D
:1029E000312CF3E035942794FA95E1F7F7016280F2
:1029F00073808080918020E0A101B301C4010E9416
:102A0000031A352D31958111ADC0132F1170012F8F
:102A100020E0A101B301C40139830E94DE1C398189
:102A20008111A0C0F6014081487150E063E05595E6
:102A300047956A95E1F7F70162817381212F8081C3
:102A400091810E94391951C09871292E312CE3E0EF
:102A500035942794EA95E1F7F701628073808080CE
:102A6000918020E0A101B301C4010E94031A352D19
:102A70003195811177C0132F1170012F20E0A10132
:102A8000B301C40139830E94DE1C398181116AC0FF
:102A90006EC02C50310916962817390709F488C0E2
:102AA00062177307B1F74A175B0799F782E391E062
:102AB0000E94E81EF6018081887190E073E0959590
:102AC00087957A95E1F71C01F1E02F1A3108F7019B
:102AD000628073808080918020E0A101B301C401F5
:102AE0000E94031A882309F469C0F6E0CF0ED11CB6
:102AF00026E0E20EF11C5394452D4170542EAA9409
:102B0000AB2809F42ECFAA24A394B12C47CF11628D
:102B100010937E068BE490E090937A06809379067A
:102B20008EE1E80EF11C3ECE126210937E068BE41D
:102B300090E090937A068093790696E3E90EF11C73
:102B400031CE8F2D836280937E068BE190E090934F
:102B50007A06809379060A5C1F4F10937C060093D7
:102B60007B0624CE832F81700E940E19BECFF60102
:102B70004081487150E033E0559547953A95E1F72B
:102B8000F70162817381212F808191810E9439191F
:102B9000F7014281538160817181E2E1F0E087EFCA
:102BA0009FEF772755279C01245C3F4FDF0178CFAB
:102BB0000C96369683339105B1F797CF012F20E01D
:102BC000A101B301C4010E94DE1C81118ECFF60168
:102BD0008081887190E023E0959587952A95E1F7AB
:102BE0008C010150110970F081E491E00E94E81E0F
:102BF000F6018081877EF8E00F9F800D1124F60199
:102C0000808373CF03E010E0EFCF1092870610921D
:102C100088061092890610928A06E9E7F6E086E8AF
:102C200085838CE38683178282E08483108688E024
:102C3000809397050895E0918506F0E0EE0FFF1F61
:102C4000E651FA4F81818F7D81830895089508951B
:102C50000895EAE2F6E026A5277064A575A580919F
:102C6000820690918306680F791F675F7F4F82A568
:102C700093A540EB5FE003970C94D225EAE2F6E0DF
:102C800020A5277066A177A1809182069091830686
:102C9000680F791F675F7F4F84A195A140EB5FE0CC
:102CA00003970C94D225EAE2F6E022A1277060A1F6
:102CB00071A18091820690918306680F791F675FEA
:102CC0007F4F868D978D40EB5FE003970C94D22564
:102CD000EAE2F6E0248D2770628D738D8091820682
:102CE00090918306680F791F675F7F4F808D918D6C
:102CF00040EB5FE003970C94D225EAE2F6E02689E8
:102D00002770648975898091820690918306680F87
:102D1000791F675F7F4F8289938940EB5FE003975C
:102D20000C94D22580915D0690915E06877099275C
:102D3000892B41F480913B068F5F66E00E947829E1
:102D400090933B0680913A068770282F220F820FBE
:102D5000880F20913B06280F609138067091390644
:102D60004091820650918306640F751F6A5F7F4F02
:102D7000809136069091370648EC5AE004960C9400
:102D8000D22540915D0650915E0647705527282F49
:102D900030E0452B61F486E0829FF001839FF00DC7
:102DA0001124E65DF94F95819F5F9370958386E0CE
:102DB000829FF001839FF00D1124E65DF94F24817D
:102DC000822F877019F0813049F00895287130E022
:102DD00083E0359527958A95E1F702C025812C5F20
:102DE000628173818091820690918306680F791FBA
:102DF00046EC57E0808191810C94D22581E00C94BF
:102E0000C11680E00C94C116609182067091830611
:102E1000615D7F4F23E044E856E083E190E00C944D
:102E2000D22560918206709183066A5C7F4F23E011
:102E300042E855E08DE190E00C94D2256091820645
:102E4000709183066A5C7F4F23E040EA53E08EE096
:102E500090E00C94D22560918206709183066A5DA1
:102E60007F4F23E04EE252E08EE090E00C94D225BA
:102E70006091820670918306615D7F4F22E044E895
:102E800056E089E590E00C94D2256091820670911D
:102E900083066A5C7F4F22E042E855E081E590E0DE
:102EA0000C94D22560918206709183066A5C7F4FF4
:102EB00022E040EA53E089E590E00C94D22560914D
:102EC0008206709183066A5D7F4F22E04EE252E0F7
:102ED00081E590E00C94D225609182067091830682
:102EE000625F7F4F21E044E856E085E590E00C9476
:102EF000D22560918206709183066B5E7F4F21E040
:102F000042E855E08FE590E00C94D225609182066E
:102F1000709183066B5E7F4F21E040EA53E080E5CD
:102F200090E00C94D22560918206709183066B5FCD
:102F30007F4F21E04EE252E080E590E00C94D225F4
:102F40006091820670918306625F7F4F20E044E8C3
:102F500056E088E190E00C94D22560918206709151
:102F600083066B5E7F4F20E042E855E080E190E011
:102F70000C94D22560918206709183066B5E7F4F20
:102F800020E040EA53E088E190E00C94D225609183
:102F90008206709183066B5F7F4F20E04EE252E025
:102FA00080E190E00C94D22520917E0622FF0DC096
:102FB000237060917B0670917C064CEA50E0809112
:102FC000790690917A060C94D225089520E04CEA77
:102FD0005AE164E170E080E190E00E9416268CE006
:102FE0000E94DD1E882319F081E0809397050895E3
:102FF00020E04AEA58E160E070E080E290E00E9460
:1030000016268CE00E94DD1E882319F081E0809353
:103010009705089580915C018F5F80935C0120E0AB
:1030200044E057E164E070E082E290E00E941626FE
:1030300081E080939705089520E042E053E160E04D
:1030400070E080E090E00E9416268091970565E090
:103050000E947829282F46E452E168E370E081E17C
:1030600090E00C9416261F93CF93DF931F92CDB759
:10307000DEB70E941C1880915D0680FD0AC0809119
:1030800002018F5F80930201809101018150809342
:10309000010180910201833218F081E180930201E5
:1030A00080910101823118F483E280930101209123
:1030B00002018091730618E1189FC0011124820F4C
:1030C000911D20E04EEC5BE168E370E088960E9481
:1030D000D2252091010180917306189FC00111240F
:1030E000820F911D20E04EEC5BE168E370E0889672
:1030F0000E94D22580E40E94DD1E81110E9460267C
:1031000080E20E94DD1E81110E945B268CE00E94FD
:10311000DD1E882389F06091730682E090E0698368
:103120000E9462296981681721F082E090E00E9484
:103130006A2981E0809397050F90DF91CF911F91CD
:1031400008950F931F93CF930E941C1880915D06E2
:1031500080FD0AC0809102018F5F809302018091FF
:10316000010181508093010180910201833218F0A6
:1031700081E18093020180910101823118F483E2A0
:1031800080930101C09100012C2F30E022503109C1
:1031900088E1829F8001839F100D1124809102019C
:1031A00020E04EEC5BE168E370E0F801E80FF11D10
:1031B000CF010E94D2258091010120E04EEC5BE11D
:1031C00068E370E0F801E80FF11DCF010E94D225FD
:1031D00080E40E94DD1E882311F0C53098F080E263
:1031E0000E94DD1E882321F080910001833070F45D
:1031F0008CE00E94DD1E882369F08091000180939D
:10320000970508C0CF5FC0930001E9CF815080933C
:103210000001EECFCF911F910F9108950F931F934F
:10322000CF93082F10E096E0899FF0011124E65D0E
:10323000F94FC481C871C695C695C695CF5FC43095
:1032400009F4C0E08CE491E00E94E81E86E0809FD3
:10325000F001819FF00D1124E65DF94F8481877E96
:1032600098E0C99F800D11248483CF911F910F9105
:103270000895413081F028F04230B9F0433021F117
:10328000089586E0289FF0011124E65DF94F8281C0
:103290009381019722C086E0289FF0011124E65D0A
:1032A000F94F82819381019709C086E0289FF00140
:1032B0001124E65DF94F8281938101969383828385
:1032C0008081918102960EC086E0289FF001112432
:1032D000E65DF94F82819381019693838283808199
:1032E0009181029791838083089580918C0182302F
:1032F00009F088C080913A068770823009F440C096
:1033000028F4882351F0813011F10895833009F4B5
:103310004CC0843009F460C00895809181068076A5
:10332000803609F46FC00E941B1680918106805E72
:10333000809381068091870690918806A0918906E6
:10334000B0918A068C599F4FAF4FBF4F53C08091A9
:1033500081068871883109F455C00E941B1680913E
:103360008106885F80938106809187069091880608
:10337000A0918906B0918A060A96A11DB11D3AC096
:1033800080917D06833018F48F5F80937D060E94C4
:103390001B168091870690918806A0918906B091AE
:1033A0008A064496A11DB11D25C080918106982FE3
:1033B0009770973039F18F5F809381060E941B16BA
:1033C0008091870690918806A0918906B0918A061F
:1033D0004E96A11DB11D0EC00E941B16809187063E
:1033E00090918806A0918906B0918A0688539F4FD4
:1033F000AF4FBF4F8093870690938806A0938906AE
:10340000B0938A06089530E0E0918206F091830639
:1034100057FD4EC04430510554F44230510599F1E6
:103420004330510509F444C041305105B1F0660FF5
:10343000771F680F791FEE0FFF1F2E9FA0012F9F90
:10344000500D3E9F500D11249A01275A3F4F81E0A5
:10345000261737070CF045C043C0F195E195F109F7
:10346000EE0FFF1F2E9FA0012F9F500D3E9F500D6E
:1034700011249A01225F3F4F660F771FAC01461B54
:10348000570BBA0110C0EE0FFF1F2E9FA0012F9FF8
:10349000500D3E9F500D11249A012A543F4F660F44
:1034A000771F680F791F81E026173707D4F018C0FF
:1034B000F195E195F109EE0FFF1F2E9FA0012F9FBF
:1034C000500D3E9F500D11249A0120553109660F71
:1034D000771FAC01461B570B81E0421753070CF0D6
:1034E00080E008954F925F926F927F928F929F92A9
:1034F000AF92BF92CF92DF92EF92FF920F931F9302
:10350000CF93DF93CDB7DEB72A970FB6F894DEBF1F
:103510000FBECDBFC82E862ECA01B9012AE0AE016A
:103520004F5F5F4F5A010E942129F5010190002051
:10353000E9F73197EA19FB096E2E1BEF019F102D59
:103540001124195F1E1BE12E012E000CFF08011132
:1035500014C0D12C8D2D90E08E159F05CCF456E033
:10356000D59EC001112420E042EE51E166E370E0F7
:103570008B960E941626D394EDCF11164CF420E0C2
:1035800042EC51E160E070E089E790E00E9416268D
:10359000D12C260186E01802400C511C1124EE0C9F
:1035A000FF1CEE0CFF1CEC0CFD1C10E0062C000CAC
:1035B0007708912C812F90E0861597058CF5F50101
:1035C000E80FF91F208121331CF020532A3008F026
:1035D00020E00130C1F060F0023001F5880F991F42
:1035E000880F991F42EA51E1B4018C0D9D1D14C052
:1035F00042EE51E166E370E0C20136E0139F800DB8
:10360000911D112409C0880F991F880F991F42EC42
:1036100051E1B4018E0D9F1D0E9416261F5FCACF77
:103620002A960FB6F894DEBF0FBECDBFDF91CF91C3
:103630001F910F91FF90EF90DF90CF90BF90AF90D0
:103640009F908F907F906F905F904F9008950F9311
:10365000CF93DF93C0E0D0E020E040E452E1BE0130
:1036600086E790E00E94D2252896C034D105A1F7C4
:103670002091850630E040E050E001E060E089E71D
:103680000E94721A20918106277030E040E050E0DD
:1036900002E067E18BE70E94721A20E049E352E101
:1036A0006DE170E08AE790E00E9416262091810685
:1036B000287130E083E0359527958A95E1F7032E50
:1036C000000C440B550B66E28BE70E94721A20E057
:1036D00040E352E16CE270E089E790E00E94162638
:1036E00020918106207630E095E0359527959A95D2
:1036F000E1F7032E000C440B550B65E38BE70E94AA
:10370000721A20E047E252E16BE370E089E790E053
:103710000E94162680915D0690915E0664E170E03D
:103720000E948429892B29F480917D0690E00297DC
:1037300094F080917E0687FF14C020917D06215071
:1037400046E152E16BE070E08AE790E0DF91CF91D3
:103750000F910C94162680917E06805880937E06E9
:10376000E8CFDF91CF910F910895CF92DF92EF9242
:10377000FF920F931F93CF93DF930EEF1FEFC0E0E5
:10378000D0E06091820670918306675E7F4F6C0F78
:103790007D1F20E04AE45FE0C8010E941626609188
:1037A0008206709183066C1B7D0B21E04AE45FE08A
:1037B000C801CE960E9416262597065F1F4FC23E6F
:1037C0008FEFD807F1F600E010E090E3C92ED12C7E
:1037D0007601C0E0D0E06091820670918306655E5C
:1037E0007F4F6C0F7D1F600F711F20E040EB5FE08B
:1037F000C7010E94D2252696ECE0EE1AF108CE31E0
:10380000D10549F7FCE0CF0ED11C0A5F1F4F0E31E6
:103810001105F1F6CDE5D1E01C2F125DE991F0E044
:10382000EE0FFF1FE659FE4E85919491FC0109951C
:103830001C13F4CFDF91CF911F910F91FF90EF9068
:10384000DF90CF9008952F923F925F926F927F9278
:103850008F929F92AF92BF92CF92DF92EF92FF92A0
:103860000F931F93CF93DF93E82FF0E0EE0FFF1F2E
:10387000E651FA4FC180D12C2DE0829FA001112486
:103880002EE2E22E26E0F22E0AE216E0C7E0D0E0B9
:10389000A62FB0E0AA0FBB1FBD01645D7E4F1B01C8
:1038A000415F5F4F65E0762E76E0572EECE06E2E9E
:1038B000D7011C92C6010C2E02C0959587950A94DB
:1038C000E2F780FF3FC0D101ED91FC91CA018C1B52
:1038D0009D0BE80FF91F249130E083E03595279583
:1038E0008A95E1F7822F672D0E947829B6E08B9F99
:1038F0005001112464E0A60EB11CA21AB30A6A9CFE
:1039000040016B9C900C112473E0870E911CD80130
:1039100011969C928E92529EB001539E700D11246E
:103920009B012E5E3F4F68EE782F6703C001112484
:10393000820F931F13969C938E931297E491E770D6
:10394000D701EC93B6E0EB0EF11C0A5F1F4F2197F5
:1039500008F0AECFDF91CF911F910F91FF90EF90C4
:10396000DF90CF90BF90AF909F908F907F906F909F
:103970005F903F902F9008959AEA899FF00111245B
:1039800085E591E0689FA001699F500D1124CF014A
:10399000840F951F2FEC290F30E084E03595279593
:1039A0008A95E1F7822F880F880F280F4E1B5F0B37
:1039B00082E1850F82958F70820F08950F93CF93C8
:1039C000C22F57FD15C0443051054CF4423051050B
:1039D00061F04330510561F04130510519F06450F8
:1039E000885008C06450885F05C06D5F8A5F02C060
:1039F0006D5F86500E94BC1C80938B01E0918B010F
:103A0000E931E0F4F0E0E35AFE4F828580938C01C7
:103A10008B31A1F0CC2319F0893091F40FC0011142
:103A200003C0811103C00AC0813041F0893041F4E4
:103A300080917D06815080937D0602C080E001C0A8
:103A400081E0CF910F910895CF92DF92EF92FF9294
:103A50000F931F93CF93DF934EE250E06BE170E042
:103A60008DE591E00E94A329C0918506D0E0CC0F9E
:103A7000DD1FFE01E651FA4F808187FF09C09BE000
:103A800090935D019CE090935E019DE090936001B6
:103A900083FF03C09EE09093610186FF09C09FE011
:103AA0009093620190E19093630191E1909365019D
:103AB00082FF03C092E19093660185FF09C093E104
:103AC0009093800194E19093810195E1909383011B
:103AD00081FF03C096E19093840184FF09C097E1C0
:103AE0009093850198E19093860199E190938801E4
:103AF00080FF03C08AE18093890180917E06982F20
:103B0000907681F460917B0680918206681B80919B
:103B100079060E94BC1CE82FF0E0E35AFE4F89E0D2
:103B2000828715C0282F2072982F9074837082305E
:103B3000F9F0833041F18130A9F0222319F089E0B6
:103B400080935F01992319F089E080938201C65127
:103B5000DA4FE980F12C0AE216E0C7E0D0E087E016
:103B6000D82E1CC0222371F389E080936401EACF30
:103B7000222319F089E080938201992341F389E09F
:103B800080935F01E4CF222319F089E080938701BD
:103B90009923E9F289E080936401D9CFCD2CCC1A26
:103BA000C7010C2E02C0959587950A94E2F780FF15
:103BB0000AC0F801628180810E94BC1CE82FF0E0FD
:103BC000E35AFE4FC28621970A5F1F4FCF3FFFEF98
:103BD000DF0721F7DF91CF911F910F91FF90EF90B9
:103BE000DF90CF90089540917E06842F807629F053
:103BF000809180068F5F809380064370809182065B
:103C0000909183062091790630917A064230C1F076
:103C1000433061F1413051F097FF02C001962BC053
:103C200080917B0690917C0601972FC097FF02C080
:103C300001960BC080917B0690917C0601970FC086
:103C4000833E4FEF940734F001979093830680935F
:103C5000820609C080917B0690917C060196909324
:103C60007C0680937B062E5F3F4F15C0833E4FEF4F
:103C7000940734F00197909383068093820609C0DD
:103C800080917B0690917C06019690937C068093B0
:103C90007B062250310930937A06209379060895E5
:103CA00080916B0681110DC082E08093670684E0ED
:103CB0008093680610926A061092690681E08093EC
:103CC0006B0687E696E00895BC01009791F0FC0131
:103CD00001900020E9F73197AF01481B590BE091A3
:103CE0009A05F0919B050280F381E02D8AE995E029
:103CF000099480E090E0089565E070E080E090E055
:103D00000C94C9240E949E29DF92EF92FF920F9398
:103D10001F93CF93DF93D82E8A017B01E40EF51E0B
:103D2000EB01CE15DF0571F0D7FE03C0FE018491D3
:103D300001C088810E948E2421968111F2CF8FEFDD
:103D40009FEF01C0C801DF91CF911F910F91FF90AC
:103D5000EF90DF9008950F931F93CF93DF931F92FF
:103D6000CDB7DEB782E0898342E450E066ED7BE1C7
:103D700080E80E94841E0E94501EDC0112960D9164
:103D80001C9113970115110569F0D801ED91FC9173
:103D90000280F381E02DBE016F5F7F4FC80109955E
:103DA00097FF07C089810F90DF91CF911F910F91ED
:103DB0000895F80100851185E5CF2091600628233C
:103DC00029F490915F06982381E009F480E008953A
:103DD000CF93DF930E94641EEC0188E591E00E947E
:103DE000641E8C0F9D1FDF91CF910895FC0180917F
:103DF0009905811103C08FEF9FEF08959FB7F89445
:103E000082E08093E9002091F20030E01216130660
:103E100014F421E030E02115310559F0289884E6AA
:103E2000809398058091F10080838091F20088232F
:103E300019F09FBFC90108958BE68093E800F9CF80
:103E40002FB7F89483E08093E9009091E800892FE0
:103E5000807295FF04C09091F20080E4891B2FBF0F
:103E600008951F920F920FB60F9211248F939F9374
:103E70008091E1009091E100937F9093E10083FFB6
:103E80000FC01092E90091E09093EB001092EC00CB
:103E900092E39093ED001092990598E09093F000D2
:103EA00082FF20C093E09093E9009091F200992363
:103EB00019F09AE39093E80090919101992339F0D9
:103EC00090919101915090939101992389F1909152
:103ED0009805992339F09091980591509093980501
:103EE000992341F184FF10C08091E2008E7E8160B1
:103EF0008093E2008091E1008F7E8093E1008091C9
:103F000092018E7E806111C080FF16C08091E20018
:103F10008E7E80618093E2008091E1008E7E8093AE
:103F2000E100809192018E7E81608093920104C0B5
:103F30005D9ACDCF289AD6CF9F918F910F900FBECB
:103F40000F901F9018951F920F920FB60F92112489
:103F5000CF92DF92EF92FF920F931F932F933F9395
:103F60004F935F936F937F938F939F93AF93BF9381
:103F7000EF93FF93CF93DF93CDB7DEB76C97DEBFA0
:103F8000CDBF1092E9008091E80083FFEDC168E0A9
:103F9000CE0145960E94BC2482EF8093E8008D8973
:103FA00087FF05C09091E80090FFFCCF03C09EEF13
:103FB0009093E800982F907609F0C6C09E892F89CB
:103FC000188D91110CC0803829F480916606809379
:103FD000F10002C01092F1001092F10048C1422F8E
:103FE00050E0512B913051F4811141C141305105C4
:103FF00009F03DC1809166068D7F0BC0933061F45E
:10400000811135C14130510509F031C180916606F9
:104010008260809366062BC1953041F48091E80060
:1040200080FFFCCF20682093E30021C1963009F087
:104030005FC0EB8CFC8C1092E90010929001109202
:104040008F01123091F510928E0110928D010E9415
:10405000AB1E99E0BE016F5F7F4FDB01E92F1D9220
:10406000EA95E9F799831A8391E09E8390EA98870D
:104070009AEF998720918F0130919001275F3F4FF0
:104080003C832B838D831092E90010929001109253
:104090008F01F0928E01E0928D0149E050E080E0C6
:1040A0000E94841E0E94AB1EE2C0F0928E01E0923C
:1040B0008D010E94501EDC011296ED90FC9013972A
:1040C000E114F10409F4C0C0D701ED91FC91048022
:1040D000F581E02DBE016B5E7F4FC701099500970A
:1040E00019F00CF0C4C0C7C0F701E084F184E8CF38
:1040F000973009F4C0C0983021F481E08093F1003A
:10410000B6C0993009F0B3C0837009F0B4C0E0E1E3
:10411000F1E081E021E036E39081992361F0809322
:10412000E9002093EB0091919093EC003093ED0027
:104130008F5F873089F78EE78093EA001092EA005C
:104140008F898093990593C08B8D9C8D1092E90087
:104150001092900110928F0190938E0180938D01A7
:10416000898D811156C08E899D89913A59F4813289
:1041700009F081C047E050E067E071E080E00E9414
:10418000841E75C0913209F076C0833289F4888D1F
:1041900090E0982F88272F89822BA0E0B0E08093B1
:1041A000030190930401A0930501B09306015FC041
:1041B000803269F48091E80082FFFCCF67E087E0FD
:1041C00091E00E94BC248BEF8093E80006C082320D
:1041D00009F04DC08F8980930E0180916506882378
:1041E00019F0EEEFFAE002C0E0E0F8E0809107019C
:1041F00090910801A0910901B0910A01803B94407F
:10420000A105B10509F07BC080910E0180FF93C02C
:1042100076C00E94501EDC0112960D911C911397DE
:104220000115110541F1D801ED91FC910190F0814A
:10423000E02DBE016B5E7F4FC8010995811117C04B
:10424000F80100851185ECCF113009F44EC0133010
:1042500091F48F89882309F445C0823081F440E8C5
:1042600067E08AE39CE10E944A27882321F08EEFD1
:104270008093E80079C081E28093EB0075C08130C3
:1042800029F440E86BE08EE29CE1EDCF833099F7B2
:104290000E94501EDC011296ED90FC9013978E0147
:1042A0000F5F1F4F6801E114F10479F0D701ED9120
:1042B000FC910680F781E02DB801C7010995080F30
:1042C000111DF701E084F184EECFD8011C92F601B4
:1042D00001900020E9F73197BF016C197D0940E09A
:1042E000C601C1CF68E17CE102C06CE17CE16115EF
:1042F000710509F2FB01449150E080E840CF0FB610
:10430000F894A89580916000886180936000109275
:1043100060000FBEA895EE3F2AE0F20739F08091C9
:10432000FE0A9091FF0A91838083A1CF1092FF0A29
:104330001092FE0A9CCFEE3F8AE0F80731F08081B0
:1043400091819093FF0A8093FE0A87E797E7918314
:1043500080839BE088E10FB6F894A8958093600075
:104360000FBE9093600083CF6C960FB6F894DEBFBB
:104370000FBECDBFDF91CF91FF91EF91BF91AF9174
:104380009F918F917F916F915F914F913F912F916D
:104390001F910F91FF90EF90DF90CF900F900FBE85
:1043A0000F901F901895CF92DF92EF92FF920F938C
:1043B0001F93CF93DF936C017A018B01C0E0D0E0B3
:1043C000CE15DF0589F0D8016D918D01D601ED91F3
:1043D000FC910190F081E02DC6010995892B11F423
:1043E0007E0102C02196ECCFC701DF91CF911F91D2
:1043F0000F91FF90EF90DF90CF900895CF93DF93D0
:104400001F92CDB7DEB76983DC01ED91FC9102808C
:10441000F381E02D41E050E0BE016F5F7F4F0995D1
:104420000F90DF91CF91089583E08093E900809110
:10443000F200882319F08AE38093E8000895FC01D4
:104440008485958597FD0BC09FB7F89482E0809393
:10445000E9008091F2009FBF90E0019608959FB718
:10446000F89482E08093E9008091F2009FBF90E091
:1044700008953FB7F8948091750690917606A091C3
:104480007706B091780626B5A89B05C02F3F19F096
:104490000196A11DB11D3FBFBA2FA92F982F8827C4
:1044A000820F911DA11DB11DBC01CD0142E0660F1F
:1044B000771F881F991F4A95D1F708954F925F92F1
:1044C0007F928F929F92AF92BF92CF92DF92EF92A4
:1044D000FF920F931F93CF93DF9300D000D0CDB7FF
:1044E000DEB729011C2DA02EB12C9C012A0D3B1DED
:1044F000121613060CF0B3C1803891050CF0AFC151
:10450000FB01EE0DF11D1E161F060CF0A8C1603454
:1045100071050CF0A4C14115510509F4A0C1E62FA5
:10452000E770FE2EFB0177FD3796A3E0F595E79542
:10453000AA95E1F7AE2F77FF04C0FF2011F0AFEF8F
:10454000AE0F97FF05C0EE27FF27E81BF90B02C04F
:10455000E0E0F0E02038310524F020E8722E781AEF
:1045600001C0702E7E1A6A2F0A2E000C770BAF3F07
:104570001CF4D62ED09401C0D12C21E03E2D3770F2
:1045800009F420E0E694E694E694E20E6E0D711DC7
:10459000693071051CF028E0E22EEA1AED183D2D75
:1045A0003A0FDC0120E83203A00DB11D1124AE0F3B
:1045B000BF1FD09EE00DF11D11244E0F5F1F81E043
:1045C00090E04C010F2C02C0880C991C0A94E2F771
:1045D000133009F403C1A0F4113009F4B5C012304E
:1045E00009F03DC18FEF889DB001899D700D1124A8
:1045F000609570957C836B835C802E2D230F2BC080
:104600001A3F31F01B3F09F02AC12E2D230F88C01D
:104610002E2D230F51C0FA01E00FF11FE491E89D08
:104620006001E99DD00C1124DA82C98237FD07C0F0
:10463000FC01E080EE2DE623CE2AFC01C082F110C1
:1046400013C00F5F1F4F0196071528F33F5F4A0DF8
:104650005B1DA058BF4F321709F401C1CD01895627
:104660009E4F00E010E0F0CF37305CF7FC01E058DF
:10467000FF4FD080D520CA80DC28D082E2CFFA015B
:10468000E60FF71FE491E89D8001E99D100D1124CC
:104690001A83098337FD04C0FC011081012B0083BC
:1046A000F11013C06F5F7F4F0196671540F33F5FB6
:1046B0004A0D5B1DA058BF4F321709F4D0C0CD0181
:1046C00089569E4F60E070E0F0CF37305CF78C0188
:1046D00000581F4FF801E080EA81EE2AF801E082DD
:1046E000E1CFFA01E00FF11FE491E89DC001E99DDF
:1046F000900D11249A83898337FD05C08095FB01B5
:10470000908189238083F11014C00F5F1F4F6F5F6A
:104710007F4F071530F33F5F4A0D5B1DA058BF4F19
:10472000321709F49CC0BD0169567E4F00E010E0CD
:10473000F0CF373054F7FB01E058FF4F8A81809566
:10474000908189238083E1CFC2018E0F9F1F2E2D80
:10475000230F321709F483C0BD0169567E4F6B01E8
:1047600000E010E0071590F5FC01E00FF11FE49167
:10477000E89DB001E99D700D1124609570957C83D2
:104780006B83FA01E00FF11FE491E89D2001E99DA0
:10479000500C11245A82498237FD05C0F601708100
:1047A0006723462A4082FF2059F037304CF4F60147
:1047B000E058FF4F70816C8167237A81672B60839B
:1047C0000F5F1F4FFFEFCF1ADF0ACCCF3F5F4A0DBD
:1047D0005B1D8A0D9B1DA058BF4FBBCFC72CD12C92
:1047E000E40FF51FA956BE4F60E870E06C197D0913
:1047F000AC18BD088501000F111F572D2E2DCF932A
:10480000DF93ED01EF96EF962296A590C590FF20DD
:1048100059F0A89C5001C89C600137302CF4E88006
:10482000D094ED20EB28E99233233AF0EC90C09439
:10483000EC20EA28ED920C941E2411965A9529F743
:104840002A9551F0572D33951124E00FF11DA60F35
:10485000B11DC60FD11DD9CFDF91CF9111240F907B
:104860000F900F900F90DF91CF911F910F91FF90BC
:10487000EF90DF90CF90BF90AF909F908F907F9000
:104880005F904F9008950895089580E090E0089516
:104890000E94201F90E008950F931F93CF93DF9302
:1048A0001F92CDB7DEB78C01FC018485958597FFFB
:1048B0000EC0CE0101960E94F61E019719F42981BF
:1048C00030E002C02FEF3FEFF80135872487F80171
:1048D000848595850F90DF91CF911F910F91089559
:1048E000CF93DF931F92CDB7DEB7FC01848595850A
:1048F00097FD05C02FEF3FEF358724870BC0CE0112
:1049000001960E94F61E019719F4898190E002C079
:104910008FEF9FEF0F90DF91CF91089540918F011E
:104920005091900120918D0130918E0142175307D3
:10493000B4F49091E8009570E1F39091E80092FD55
:1049400019C08093F10080918F01909190010196A0
:104950008F739927892B19F48EEF8093E80080914B
:104960008F019091900101969093900180938F0117
:1049700081E0089580E00895615030F02091F100C9
:10498000FC0120830196F8CF289884E6809398054F
:1049900008958F929F92AF92BF92CF92DF92EF9243
:1049A000FF926B017C010E9439224B015C01C11412
:1049B000D104E104F104F1F00E943922DC01CB01C1
:1049C00088199909AA09BB09883E9340A105B10538
:1049D00070F321E0C21AD108E108F10888EE880ED0
:1049E00083E0981EA11CB11CC114D104E104F104A0
:1049F00019F7DDCFFF90EF90DF90CF90BF90AF9091
:104A00009F908F9008958F929F92AF92BF92CF9276
:104A1000DF92EF92FF920F931F93CF93DF935C018E
:104A20006B017A0180910E01882309F45BC08091AB
:104A30009905882309F456C08091920180FF05C032
:104A40008091E00082608093E000E70110E00AEFCF
:104A500083E0882E9AE3992E2097D9F10E94201F97
:104A600081110AC0015009F43DC061E070E080E0AE
:104A700090E00E94C924F0CF282F30E0C217D3075E
:104A80000CF48C2F4FB7F8948092E9009091E800D5
:104A900095FF1DC0282F30E0C21BD30BF601982FC5
:104AA000915020F081918093F100FACFC20ED31E75
:104AB000112319F09092E80009C08091E80085FD6B
:104AC00006C09092E80011E0209709F010E04FBF77
:104AD000C3CF1111C3CF5D9884E6809391011E145A
:104AE0001F0444F081E090E0F5019383828380E02D
:104AF00090E001C0C701DF91CF911F910F91FF900E
:104B0000EF90DF90CF90BF90AF909F908F900895DF
:104B10001F920F920FB60F9211242F933F938F93F2
:104B20009F93AF93BF938091930190919401A09133
:104B30009501B09196013091740623E0230F2D3733
:104B400020F40196A11DB11D05C026E8230F029691
:104B5000A11DB11D2093740680939301909394013D
:104B6000A0939501B0939601809175069091760679
:104B7000A0917706B09178060196A11DB11D809392
:104B8000750690937606A0937706B0937806BF914A
:104B9000AF919F918F913F912F910F900FBE0F90EA
:104BA0001F901895CF92DF92EF920F931F93CF93A0
:104BB000DF934115510591F1FA0104913196E4908A
:104BC0004E5F5F4F222321F130E0220F331FC02FB1
:104BD000D0E0AE2DA695A695A695EA2FF0E0A1E02F
:104BE000B0E01E2D177011F4A0E0B0E0AE0FBF1FB3
:104BF000CA9F6001CB9FD00CDA9FD00C11242C9D52
:104C0000F0012D9DF00D3C9DF00D11244E0F5F1F06
:104C100023E0C22E20E030E00E945E22DF91CF919F
:104C20001F910F91EF90DF90CF900895CF92DF9278
:104C3000EF920F93CF93DF934115510569F1FA017C
:104C400004913196E4904E5F5F4F2223F9F0C02F1C
:104C5000D0E0AE2DA695A695A695EA2FF0E0A1E0AE
:104C6000B0E03E2D377011F4A0E0B0E0AE0FBF1FF2
:104C7000CA9F6001CB9FD00CDA9FD00C11242C9DD1
:104C8000F0012D9DF00D11244E0F5F1F2AEFC22E53
:104C900020E030E00E945E22DF91CF910F91EF90F3
:104CA000DF90CF9008958FB18095807F669B88605C
:104CB0001C9B84600895109273063E983F98089557
:104CC0003E9A3F9A81E08093730608950F9320E007
:104CD00049EE50E260E070E080E090E00E9416262D
:104CE00020918706309188064091890650918A0666
:104CF00000E066E38BE20E94721A8CE00E94DD1EE7
:104D0000882319F081E0809397050F9108950F9300
:104D100020E047EE5CE160E070E080E090E00E941F
:104D20001626209187063091880640918906509179
:104D30008A0600E066E38BE20E94721A8CE00E9411
:104D4000DD1E882319F086E0809397050F91089562
:104D50008F929F92AF92BF92CF92DF92EF92FF928B
:104D60000F931F93CF93DF93609186066F5F6093DD
:104D70008606109285068CE08093840682EF9FEF72
:104D8000909383068093820683E390E090937A0663
:104D9000809379068CE190E090937C0680937B066B
:104DA000E62FF0E0EE0FFF1FE45DFE4FC081D181E2
:104DB00080E0812C912C54018394FE0194918917F9
:104DC00008F036C0A82FB0E0AA0FBB1FA651BA4FFB
:104DD0008D010F5F1F4F11961C9211979DE0899FC7
:104DE000A0011124FA013396EC0FFD1FE491EC931E
:104DF00027E030E0DA011F96AD01421B530BFE01A4
:104E0000E40FF51F4491442371F0F801908175017E
:104E10006401022E04C0CC0CDD1CEE1CFF1C0A94A5
:104E2000D2F7C92AC0822150310930F78F5FC5CF30
:104E300080E00E94231C86E080939705DF91CF914C
:104E40001F910F91FF90EF90DF90CF90BF90AF90A8
:104E50009F908F90089560918606809185060E94AC
:104E6000241D0E94B51B80918006853038F4809106
:104E70005D0680FD0DC00E94F31D0AC010928006E1
:104E800080917E068F7B80937E0686E080939705D7
:104E90000C94271BCF92DF92EF92FF920F931F93F8
:104EA000CF93DF931F92CDB7DEB7182F062FE42ED6
:104EB000862F880F8E5F99830E948E2483E00E9444
:104EC0008E24F12EC12E9981D92E8C2D8F19801709
:104ED00098F4F601E7FE02C0849101C080810E942F
:104EE0008E24182F80E00E948E248123FFEFCF1A9A
:104EF000DF0A8111EACF01C081E00F90DF91CF91ED
:104F00001F910F91FF90EF90DF90CF900895109236
:104F10009D0510929C0588EE93E0A0E0B0E08093A0
:104F20009E0590939F05A093A005B093A1058AE1EB
:104F300091E090939B0580939A058FEF9FEF90935C
:104F4000A7058093A6058CE291E090935B06809381
:104F50005A0610925F061092600680E18093610607
:104F600010925E0610925D061092630680E090E05B
:104F7000FC01E65DF94F1482069680339105C1F776
:104F800080E090E0FC01E651FA4F10821182029617
:104F900080349105B9F70895789484B5826084BD12
:104FA00084B5816084BD85B5826085BD85B581602D
:104FB00085BD80916E00816080936E0010928100AB
:104FC0008091810082608093810080918100816066
:104FD0008093810080918000816080938000809127
:104FE0009100826080939100809191008160809314
:104FF0009100809190008160809390008091C10029
:1050000084608093C1008091C10082608093C10060
:105010008091C10081608093C1008091C300816054
:105020008093C3008091C00082608093C000809113
:10503000C20081608093C20080917A008460809376
:105040007A0080917A00826080937A0080917A0061
:10505000816080937A0080917A00806880937A00E2
:105060001092990510926606109292018091D700D5
:1050700081608093D70080EA8093D80089B58061F1
:1050800089BD89B5826089BD09B400FEFDCF61E0AC
:1050900070E080E090E00E94C9248091D8008F7C6D
:1050A00080618093D8008091E000807F8093E00051
:1050B0008091E1008E7E8093E1008DE08093E2009C
:1050C000559A209AEEEFFFE7859194918B3F9C4D86
:1050D00019F481E08093650681EC80937C0085B1B2
:1050E000806F85B984B1877E84B984B1876E84B9B5
:1050F0005E9A5F988AB1806D8AB9769A6E9881B30C
:10510000806F81BB899880B38D7080BB80E58CBD3A
:1051100081E08DBD0E947C1E5F9A0E947C1E5E987D
:105120005C98E2E4FCE18DE08E0F94919EBD00005E
:105130000DB407FEFDCF31968E13F7CF5C9A81E850
:10514000809364008091650081608093650082E0B7
:1051500090E00E946229882319F00E94602602C014
:105160000E945B2680E180936106EE24E394C7E908
:10517000D1E000E010E0DD24D3948FB7F8944091A3
:1051800093015091940160919501709196018FBFA8
:1051900080916206942F981B892FF0906306FF2060
:1051A00029F0909364061092630644C090916106C2
:1051B000891740F48F5F891708F03CC0E3BE8895DB
:1051C00013BE38C0D09263064093620680915D069C
:1051D00090915E06019690935E0680935D068091A5
:1051E0005F06809360060E94532680935F068F2D92
:1051F000FE0181118FEF002481938193819381932C
:105200000394D1F7E0919705F0E0EE0FFF1FE15B0B
:10521000F34E85919491FC010995FE0180E098E0A0
:1052200000800EBCF110012C019780FDFDCF019292
:10523000B9F70DB40115110509F49FCF0E940000C4
:105240009CCFBB272A3051F4992342F4BDE29095BC
:105250008095709561957F4F8F4F9F4F0C943129AA
:10526000BB27FA01A62F6217710581059105330B43
:1052700030FB66F0AA27660F771F881F991FAA1FA9
:10528000A21710F0A21B63953850A9F7A05DAA33AE
:1052900008F0A95DA19336F7B111B1931082CA014C
:1052A0000C945229DC01FC01672F71917723E1F7FF
:1052B000329704C07C916D9370836291AE17BF07E3
:1052C000C8F30895F999FECF92BD81BDF89A992748
:1052D00080B50895262FF999FECF1FBA92BD81BDE2
:1052E00020BD0FB6F894FA9AF99A0FBE0196089568
:1052F000991B79E004C0991F961708F0961B881F28
:105300007A95C9F780950895AA1BBB1B51E107C088
:10531000AA1FBB1FA617B70710F0A61BB70B881F45
:10532000991F5A95A9F780959095BC01CD010895D4
:10533000EE0FFF1F0590F491E02D099481E090E0BD
:10534000F8940C94AA29DC0101C06D93415050409F
:08535000E0F70895F894FFCF87
:10535800032311FFFFFFFF00E10000000000000031
:10536800C1808100000000000000FE2103254824C0
:1053780014221F2270244C24000000004324A61C81
:10538800651C6F6E206D6964646C652074696C655A
:10539800007475726E4C6566743A20007475726E8E
:0C53A80052696768743A20000D0A00008A
:00000001FF
